:020000040000fa
:080000000002040000000000f2
:020000040000fa
:04000800d80200001a
:020000040000fa
:04000c00d802000016
:020000040000fa
:04001000d802000012
:020000040000fa
:04001400d80200000e
:020000040000fa
:04001800d80200000a
:020000040000fa
:04001c00d802000006
:020000040000fa
:04002000d802000002
:020000040000fa
:04002400d8020000fe
:020000040000fa
:04002800d8020000fa
:020000040000fa
:04002c00d8020000f6
:020000040000fa
:04003000d8020000f2
:020000040000fa
:04003400d8020000ee
:020000040000fa
:04003800d8020000ea
:020000040000fa
:04003c00d8020000e6
:020000040000fa
:04004000d8020000e2
:020000040000fa
:04004400d8020000de
:020000040000fa
:04004800d8020000da
:020000040000fa
:04004c00d8020000d6
:020000040000fa
:04005000d8020000d2
:020000040000fa
:04005400d8020000ce
:020000040000fa
:04005800d8020000ca
:020000040000fa
:04005c00d8020000c6
:020000040000fa
:04006000d8020000c2
:020000040000fa
:04006400d8020000be
:020000040000fa
:04006800d8020000ba
:020000040000fa
:04006c00d8020000b6
:020000040000fa
:04007000d8020000b2
:020000040000fa
:04007400d8020000ae
:020000040000fa
:04007800d8020000aa
:020000040000fa
:04007c00d8020000a6
:020000040000fa
:04008000d8020000a2
:020000040000fa
:04008400d80200009e
:020000040000fa
:04008800d80200009a
:020000040000fa
:04008c00d802000096
:020000040000fa
:04009000d802000092
:020000040000fa
:04009400d80200008e
:020000040000fa
:04009800d80200008a
:020000040000fa
:04009c00d802000086
:020000040000fa
:0400a000d802000082
:020000040000fa
:0400a400d80200007e
:020000040000fa
:0400a800d80200007a
:020000040000fa
:0400ac00d802000076
:020000040000fa
:0400b000d802000072
:020000040000fa
:0400b400d80200006e
:020000040000fa
:0400b800d80200006a
:020000040000fa
:0400bc00d802000066
:020000040000fa
:0400c000d802000062
:020000040000fa
:0400c400d80200005e
:020000040000fa
:0400c800d80200005a
:020000040000fa
:0400cc00d802000056
:020000040000fa
:0400d000d802000052
:020000040000fa
:0400d400d80200004e
:020000040000fa
:0400d800d80200004a
:020000040000fa
:0400dc00d802000046
:020000040000fa
:0400e000d802000042
:020000040000fa
:0400e400d80200003e
:020000040000fa
:0400e800d80200003a
:020000040000fa
:0400ec00d802000036
:020000040000fa
:0400f000d802000032
:020000040000fa
:0400f400d80200002e
:020000040000fa
:0400f800d80200002a
:020000040000fa
:0400fc00d802000026
:020000040000fa
:04010000d802000021
:020000040000fa
:04010400d80200001d
:020000040000fa
:04010800d802000019
:020000040000fa
:04010c00d802000015
:020000040000fa
:04011000d802000011
:020000040000fa
:04011400d80200000d
:020000040000fa
:04011800d802000009
:020000040000fa
:04011c00d802000005
:020000040000fa
:04012000d802000001
:020000040000fa
:04012400d8020000fd
:020000040000fa
:04012800d8020000f9
:020000040000fa
:04012c00d8020000f5
:020000040000fa
:04013000d8020000f1
:020000040000fa
:04013400d8020000ed
:020000040000fa
:04020800d802000018
:020000040000fa
:04020c00d802000014
:020000040000fa
:04021000d802000010
:020000040000fa
:04021400d80200000c
:020000040000fa
:04021800d802000008
:020000040000fa
:04021c00d802000004
:020000040000fa
:04022000d802000000
:020000040000fa
:04022400d8020000fc
:020000040000fa
:04022800d8020000f8
:020000040000fa
:04022c00d8020000f4
:020000040000fa
:04023000d8020000f0
:020000040000fa
:04023400d8020000ec
:020000040000fa
:04023800d8020000e8
:020000040000fa
:04023c00d8020000e4
:020000040000fa
:04024000d8020000e0
:020000040000fa
:04024400d8020000dc
:020000040000fa
:04024800d8020000d8
:020000040000fa
:04024c00d8020000d4
:020000040000fa
:04025000d8020000d0
:020000040000fa
:04025400d8020000cc
:020000040000fa
:04025800d8020000c8
:020000040000fa
:04025c00d8020000c4
:020000040000fa
:04026000d8020000c0
:020000040000fa
:04026400d8020000bc
:020000040000fa
:04026800d8020000b8
:020000040000fa
:04026c00d8020000b4
:020000040000fa
:04027000d8020000b0
:020000040000fa
:04027400d8020000ac
:020000040000fa
:04027800d8020000a8
:020000040000fa
:04027c00d8020000a4
:020000040000fa
:04028000d8020000a0
:020000040000fa
:04028400d80200009c
:020000040000fa
:04028800d802000098
:020000040000fa
:04028c00d802000094
:020000040000fa
:04029000d802000090
:020000040000fa
:04029400d80200008c
:020000040000fa
:04029800d802000088
:020000040000fa
:04029c00d802000084
:020000040000fa
:0402a000d802000080
:020000040000fa
:0402a400d80200007c
:020000040000fa
:0402a800d802000078
:020000040000fa
:0402ac00d802000074
:020000040000fa
:0402b000d802000070
:020000040000fa
:0402b400d80200006c
:020000040000fa
:0402b800d802000068
:020000040000fa
:0402bc00d802000064
:020000040000fa
:0402c000d802000060
:020000040000fa
:0402c400d80200005c
:020000040000fa
:0402c800d802000058
:020000040000fa
:0402cc00d802000054
:020000040000fa
:0402d000d802000050
:020000040000fa
:0402d400d80200004c
:020000040000fa
:0402d800d802000048
:020000040000fa
:0402dc00d802000044
:020000040000fa
:0402e000d802000040
:020000040000fa
:0402e400d80200003c
:020000040000fa
:0402e800d802000038
:020000040000fa
:0402ec00d802000034
:020000040000fa
:0402f000d802000030
:020000040000fa
:0402f400d80200002c
:020000040000fa
:0402f800d802000028
:020000040000fa
:0402fc00d802000024
:020000040000fa
:04030000d80200001f
:020000040000fa
:04030400d80200001b
:020000040000fa
:04030800d802000017
:020000040000fa
:04030c00d802000013
:020000040000fa
:04031000d80200000f
:020000040000fa
:04031400d80200000b
:020000040000fa
:04031800d802000007
:020000040000fa
:04031c00d802000003
:020000040000fa
:04032000d8020000ff
:020000040000fa
:04032400d8020000fb
:020000040000fa
:04032800d8020000f7
:020000040000fa
:04032c00d8020000f3
:020000040000fa
:04033000d8020000ef
:020000040000fa
:04033400d8020000eb
:020000040000fa
:100400008fc220000e7f22000e0188000000000035
:10041000000020000000e000020032000001200087
:100420002002880014000700630007000000e000bd
:1004300003003a00a01d2100010020000200370047
:100440000000200001002000810f70000100320038
:1004500014000700000020000000e000020032004d
:1004600000000200000000004e1102000000000029
:100470000040da000000fe004440a900601d20009a
:100480000000e0000300320000002000a00188000e
:100490004440a800000006008a1f78008b1f7800e7
:1004a0000000060091018800800478000000eb0045
:1004b0001a003700e284440032a0b4009905ba0063
:1004c000e284440032a0b4009906ba00e2844400f9
:1004d00032a0b4000006eb00476fde00fd07b2005b
:1004e000636ce10003003a00ebff07000000eb0043
:1004f0000a003700606ce10004003a00005deb0088
:100500008b05e900fdff3e00040037006168e10053
:10051000010032000086eb000b00070019c7ba008b
:100520001905ba000e04e00003003a000a00e000da
:10053000e0ff3a0000000600fe07b2009e018800be
:100540008a047800f5ff3700395dba008b05e900b1
:100550000c003200295dba008b05e900080032006a
:100560000c00e00003003a00e284440032a0b40032
:10057000f5ff370019ddba008b05e900faff3a00f4
:100580008904e800e184440032a0b40000000600c1
:10059000600f040000000000c21004000000000012
:1005a0001611040000000000f80204000000000022
:1005b0000040da000000fe00000005008001780025
:1005c00002003700b15978000201e9000200e000a2
:1005d000fcff3a000000060080007800010178006e
:1005e0003104e000fdff3a00000051000000060069
:1005f000881f78000204780008017800efff0700e8
:10060000080040004f047800000006000000fa00d7
:10061000881f780000047800ea8157003fb99700ee
:1006200088007800802f2000070007000000e0000d
:10063000020035008040eb00017478004f04780020
:100640000080fa00000006006200fa00889fbe00e9
:100650008a1f780000057800810478000204780081
:100660008300780080f92f000f004000b1030700dd
:100670009a979f00a9979f000000eb00b09f9f00f2
:100680001885fb008a04fb000a05ea004f55de00ce
:1006900050022000808f54000d003200e10f550001
:1006a0000b003a000a017800880078002f9097002c
:1006b0009f91970003000100a0979f000000e000b9
:1006c0008e0032003f9897000000e800b09f9f0026
:1006d0000a04440050022000808f540004003200bd
:1006e0000900e000e6ff3a003f98970084003700d9
:1006f0000000eb00909f9f00809f9f00f0979f005d
:10070000e0979f00d0979f00c0979f000700370099
:1007100021c22000010050000000400061c1200003
:1007200061007800df98970001007000d09f9f0063
:100730008804780009047800384578008a00fb00b6
:1007400020c22000840107000000e000f0ff3a0012
:10075000a1c2b300814f55000e003a00cf88970028
:100760000180e900c08f9f0010007800c09f9f00ab
:100770000000e00005003d000000ea00c09f9f006f
:100780005f9897000020a000d09f9f000904e80018
:100790000f003700c09f9f000000eb0005003700ee
:1007a000f2ff2700820f5000020032006a01b900f8
:1007b000028040000904780088047800b900fb003a
:1007c0000103b100e98f5000f5ff3600c09f9f0084
:1007d000e0c2b300984f1000020032000080eb002e
:1007e00019003700a0c2b300d84f100007003a002c
:1007f000cf8897000180e900c08f9f00100078002b
:10080000a09f9f000804e800100037000000eb00e4
:10081000a09f9f008800780005003700f3ff2700a5
:10082000830f5000020032006a02b9000400410048
:1008300001047800880078003101fb000203b10058
:10084000e90f5100f5ff3600a09f9f009844780003
:100850008900fb00e0c020003f0107000000e0002d
:10086000020032000804e800010037008044eb0079
:10087000c97f9f0080c6b30080cf540004003a00b7
:1008800098cf14000a003a00664050000600370076
:10089000c0c6b30080cf540005003a0098cf1400c2
:1008a00003003a0065404000c07f9f000804e80054
:1008b0001801fb00e3fb2f008f81410081f92f001d
:1008c0008f804000a0f92f000f00400010000700ab
:1008d0000000e00009003a00e1fb2f008f8040009b
:1008e000a0f92f000f004000560207000000e000b2
:1008f000020035000804e80061ff37000080eb00cb
:100900004f0578004f04be000080fa00000006008a
:10091000889fbe008a9fbe00e4c6b300844f51008a
:10092000be00320010003c006b425200844f510068
:100930001800320005003c0054c2b300844f51003f
:10094000f600320084c5b3000f00370044c6b30080
:10095000844f51001400320065424200844f510020
:10096000f1003a001000370004c7b300844f510073
:10097000dd0032005600350065424200844f5100d0
:100980005300320063424200844f5100e6003a00b7
:100990004f0037001181e90082087800f0009000d4
:1009a00012417800de00370020629000c5c6b30017
:1009b000854f520007003a0091027800648252008d
:1009c000840878001402be004fabde008603780076
:1009d0001400370015c7b300854f520003003a00da
:1009e000110478006802540005003700a5c6b30062
:1009f000854f520006003a00910478006882540046
:100a0000840878005403be004402be00050037008d
:100a10001182e9008408780014027800cfa2de0079
:100a2000612bb9000498be000690be00a060900043
:100a300088c6b30088cf50000d00320028c6b3002e
:100a400088cf500004003a000402fb00cfa2de0071
:100a5000612bb9000800370048c7b30088cf5000a9
:100a6000030032006644440088cf500004003a007e
:100a7000cfa2de00612bb9000498be000690be0034
:100a80003002be002003be00f0009000e00f5200d4
:100a9000e08f5a00e00f5b00e08f5b0002003d003a
:100aa000d4c2b30008003700001290000418a3005d
:100ab00002003200b4c2b300030037000408a300f0
:100ac0005100320004c2b30084f178004c003700ba
:100ad00020629000c5c6b300854f520008003a005e
:100ae0001105780064025500840878001404be00e3
:100af0006055b8000802be000a03be0014003700ab
:100b000015c7b300854f520003003a0091047800e6
:100b10006882540005003700a5c6b300854f520017
:100b200006003a0011057800680255008408780034
:100b30005403be004402be00050037001182e900e4
:100b400084087800140278008002eb006033b8005b
:100b50000498be000690be00a060900088c6b30056
:100b600088cf50000d00320028c6b30088cf500057
:100b700004003a000482fb008002eb006033b800fe
:100b80000800370048c7b30088cf50000300320088
:100b90006644440088cf500004003a008002eb0015
:100ba0006033b8000498be000690be00801090002c
:100bb0000138a300140032003002be002003be0042
:100bc000e00f5200e08f5a00e00f5b00e08f5b0007
:100bd0000d00320081c7b300814f51000300320085
:100be00081c5b300814f510007003a00f00090002a
:100bf00004c3b30084f178008100e80082f178003a
:100c00008100e80071009800f000900081814100af
:100c100063009800824078003e003700a061900099
:100c2000c4c6b3001181e90084cf51002200320014
:100c30000a003c006442520084cf5100250032007b
:100c400004c2e80084cf5100130032006842520011
:100c500084cf51001e003a000a00370044c7b30099
:100c600084cf51001b0032006642420084cf510005
:100c7000180032006942520084cf510014003a003b
:100c800005003700820878009200780040589000f4
:100c9000804878002c0037008208780092007800a5
:100ca000600a9000cfa2de00612bb9008498be00dc
:100cb0008690be00240037008208780092007800f9
:100cc00060099000cf91de008288be001e003700d0
:100cd0001181e90082087800920078006008900095
:100ce00080087800180037001181e9008208780038
:100cf00012027800cfa2de00612bb9000498be007a
:100d00000690be00f00090008181410063009800d1
:100d100081c7b3001c0007000b003700f0009000f3
:100d200082f1780006003700f000900081814100d8
:100d30000204e00001003a0052c2b3008249780088
:100d40008100e800710098000000eb004f05be0034
:100d50004f04be0000000600020037000304e0005c
:100d6000060032000001780002007800b0417800ef
:100d700081cf5100f9ff3a00010037000001eb007c
:100d80000200780000000600fc874700889fbe0034
:100d90008a9fbe008c9fbe008e1f780000067800e0
:100da00080c5b30080cf50000a0032007740400079
:100db00080cf50000a0032006940400080cf5000d0
:100dc0000b003200d0bf200080bf9f00ae0020008b
:100dd0000a003700c2be200082bf9f000600370015
:100de000d3bf200083bf9f008e0020000300370088
:100df000d4bf200084bf9f000e0120003c02be0033
:100e00002c03be000605be000404be0040c6b300ad
:100e100080cf5000030032006540400080cf50007a
:100e20000b003a00e00f5200e08f5a00e00f5b0029
:100e3000e08f5b0006003d006000b8006011b80064
:100e40000404500085845800060559008785590020
:100e5000e80f57000400320040002000f00f570058
:100e600038003a000100370030002000e00f540045
:100e7000e08f5c00e00f5d00e08f5d0004003a0051
:100e8000dc0890008d0120000100e0000600320027
:100e90008e00e900888060008fba9700e5c0780076
:100ea000f1ef9f007d012000800078008100e900c3
:100eb000050033008b05d1000a85d3008984d30057
:100ec0000884d300f9ff3700089ebe000a96be00d2
:100ed000120037008d06e9008e00e9008480600072
:100ee0000fb99700e2c1780082fd2f000f01410089
:100ef00003f17e00800078008100e90005003300e6
:100f00008783d1000683d3008582d3000482d30077
:100f1000f9ff3700049ebe000696be003c02be00ec
:100f20002c03be00e00f5200e08f5a00e00f5b0080
:100f3000e08f5b008b0034000d00e000e5ff3c001b
:100f4000880037002c60900081c6b300814f5000ac
:100f50000b00320006003c000004e00008003200f4
:100f6000e6c05000814f50004e003a0004003700a8
:100f7000c1c6b300814f50004a003a00210037003b
:100f80000800e00004003a005c0890008d01200099
:100f90000000e00006003200110009000e84d800b5
:100fa0000fb99700e2c07800f1ef9f007d012000ab
:100fb000110009000e84d8000a0037001100090052
:100fc0000e04d8008d06e9000e81b9000204540019
:100fd0008fb8970061417c0081fd2f008f80400019
:100fe00082f07e00000478000800e0000200320079
:100ff0000d00e000f1ff3c00cfc4de00614db90000
:1010000025003700e00f5400e08f5c0004003a0038
:101010005c0890008d0120000000e0000700320015
:101020006171b9000800be00630107008fb9970025
:10103000e3417800f3ef9f007d0120006171b9006a
:101040000800be004c0107000b0037006171b900b9
:101050000800be00390107008d06e90000f1b90063
:10106000020454000fba9700e4427c0084fd2f0074
:101070000f02420005f27e000004be00e00f5000a7
:10108000e08f5800020032000d00e000efff3c004e
:101090004fcdde008a057800089ebe000a96be008d
:1010a00030003700e00f5400e08f5c00e00f5d007f
:1010b000e08f5d0004003a005c0890008d01200084
:1010c0000000e000090032006172b900612bb90034
:1010d0000800be000a01be00da0107000fba97003f
:1010e00064427800f4ef9f007d0120006172b90036
:1010f000612bb9000800be000a01be00ca0107004a
:101100000d0037006172b900612bb9000800be0004
:101110000a01be00cf0107008d06e90000f2b90008
:10112000040454008fba970065427c0085fd2f00af
:101130008f82420084f27e00009ebe000296be00b6
:101140003c04be002c05be00e00f5400e08f5c00a4
:10115000e00f5d00e08f5d00020034000d00e00054
:10116000e8ff3c00e80f570010003a000c10900018
:101170000038a3000d003200f78f560006003e0035
:1011800085fd2f008f824200e5c07e0000c3b300c2
:1011900080cf5000050032008d06e90002c3b30085
:1011a00081fd2f008f80400082f07e007881160044
:1011b000120e98006c00900083fd2f008f8141007b
:1011c0008d804100fdfc07001c089000dc089000a9
:1011d000810f500006003d0000805000000e980076
:1011e0000c1090000040a100001698000f0037007e
:1011f0000100e0000d003d008c109000f4806000c4
:10120000f08f500009003a007c099000fc0090002b
:10121000810051000c099000828050000080500035
:101220004240a90001003400000e98004f077800ea
:101230004f06be004f05be004f04be00cf01b100f7
:10124000000006000400fa00889fbe008a9fbe00ce
:101250008c1f78000004780001067800f80d9000db
:101260007800900080855500080890008085550022
:10127000180890008085550028089000808555004a
:1012800038089000808555004808900080855500fa
:101290000002220090bf9f0000032300a0bf9f0018
:1012a000081090000028a30015003a000b00e00091
:1012b000130034000b0578008a047800e20f550013
:1012c0000100360029002000c801900009017800c3
:1012d000ee80570058009000030001005004980071
:1012e0000000e0008c003200680890000900400017
:1012f000600c9800090555004240a900eeff3c0033
:10130000780190000200e0000c003400c801900059
:101310008c007800580090000300010050049800f1
:101320008080eb000000e0007c003200e8089000c4
:101330007800900000804000600c9800880c9000bd
:101340000900e0001100340009057800e28f540024
:10135000010036002a002000c80190000a01780030
:10136000ec805700580090000300010050049800e2
:101370000000e00068003200680890000a004000a9
:10138000600c98008a845400edff37001809900023
:101390000200e0000c003400c8019000e80090005a
:1013a0005800900003000100500498008080eb007a
:1013b0000000e00059003200e80890001808900092
:1013c00000804000600c9800a80c90000900e0002c
:1013d0001100340009057800e28f54000100360046
:1013e0002a002000c80190000a017800ec80570014
:1013f0005800900003000100500498000000e00035
:1014000045003200680890000a004000600c980017
:101410008a845400edff3700380990000200e00094
:101420000e003400e8009000180890008080400012
:10143000c80190005800900003000100500498007b
:101440008080eb000000e00034003200e8089000eb
:101450003808900000804000600c9800c80c900094
:101460000900e0001100340009057800e28f540003
:10147000010036002a002000c80190000a0178000f
:10148000ec805700580090000300010050049800c1
:101490000000e00020003200680890000a004000d0
:1014a000600c98008a845400edff3700081090000b
:1014b0008000eb000028a300180032000b00e000c1
:1014c000160034008b04780009057800e28f540080
:1014d000010036002a002000c80190000a017800af
:1014e000ee8057005800900003000100500498005f
:1014f0000000e00008003200680890000a00400088
:10150000600c98008a8454004240a900eeff3c0021
:101510008000eb00010037008080eb0001007800c4
:101520004f0678004f05be004f04be000080fa0051
:10153000000006000108780000000600839f680094
:101540000100e00002003d0060001000e080180093
:101550000300e00002003d0060011100e08119007d
:10156000050007004f00e00002003b006000100093
:10157000e0801800000006006022b800060220008b
:101580000000d0008180d2000482d2008582d20087
:101590000000a0000202520083825a0003003100c2
:1015a0000202420083824a000000a1000603e90013
:1015b000f3ff3a0000000600efff07000400be0042
:1015c00000000600889fbe008a9fbe0030044200d3
:1015d000b0844a0030054b0090854b006000b1009c
:1015e0000898be000a90be000440e10005c8e10072
:1015f00006d0e10007d8e100020031006800400099
:101600001008e8004f05be004f04be0000000600b1
:10161000889fbe008a9fbe003004be002005be0029
:101620000418540005985c0006185d0007985d00da
:10163000110020000440e10005c8e10006d0e100ef
:1016400007d8e100010039008000eb00108810008d
:101650004f05be004f04be00000006001200fa0055
:10166000889fbe008a9fbe008c9fbe00e0b79f008f
:10167000f1b79f0082bf9f0093bf9f000605be0089
:101680000404be000000eb00d0b79f00c0b79f006d
:10169000b0b79f00a0b79f0090b79f000006eb0077
:1016a0005fb19700cfb09700820141003fb0970033
:1016b0000200e00004003d00370007007e80570074
:1016c000c0ff070003003700330007007e8057008b
:1016d000cfff0700dfb697000d00e0000c003500db
:1016e0006fb29700ffb297000fbb97009fbb9700a8
:1016f00010002000010020006011b80000027200fc
:101700008182720002037300838373001b00070051
:101710000c06e80001042000810f5600e0ff3a00ab
:101720000d00e00004003d000802be000a03be00f8
:101730007e805700a3ff07005fa897000000e0002d
:1017400005003a001fb29700afb297003fb3970071
:10175000cfb39700090007006fb09700ffb0970064
:101760000fb997009fb997004f06be004f05be0006
:101770004f04be000080fa000000060001000700d0
:1017800000000600a4b79f00b5b79f00c6b79f0032
:10179000d7b79f00000006004f09de00828171006c
:1017a000b3b79f004f01de0081804000828070004f
:1017b000a1b79f008fb097004f09de0000004000e6
:1017c0000200700090b79f007fa897004f01de00d5
:1017d000818040008280700081b79f000d0007006b
:1017e0004f3ade000000400004007000f0af9f00a0
:1017f000080007000402420085824a0006034b00ed
:1018000087834b00dfff07000802be000a03be000b
:10181000000006002fb29700bfb297004fb39700a9
:10182000dfb3970000000600881f78001800200032
:10183000881f780089ff07008f87e9004f04780030
:1018400000000600801feb0084ff07008f87e9007f
:1018500000000600889fbe008a9fbe00e00f500077
:10186000e08f5800e00f5900e08f59000c003d0058
:101870006044b8006055b8000000540081805c00ee
:1018800002015d0083815d00180020001500070043
:1018900008003d00180007000004eb0005003700b9
:1018a0000004eb000f00070002003d0012000700db
:1018b00018002000dcff07000800e00006003200ee
:1018c0006022b8006033b8000000520081805a00e6
:1018d00002015b0083815b004f05be004f04be0028
:1018e00000000600e00f5200e08f5a00e00f5b009e
:1018f000e08f5b00000006006044b8006055b8004f
:101900000402540085825c0006035d0087835d004d
:1019100000000600889fbe008a9fbe008c1f7800d2
:10192000e00f5000e08f5800e00f5900e08f5900a1
:101930000d003d006044b8006055b8000000540040
:1019400081805c0002015d0083815d001c0020003d
:101950000820e10009a8e1000ab0e1000bb8e100ad
:101960000d003d00080037000006eb00e00f5200bc
:10197000e08f5a00e00f5b00e08f5b0006003d0047
:101980006044b8006055b8000402540085825c00d1
:1019900006035d0087835d00aaff07000c00e000de
:1019a000060032006022b8006033b8000000520028
:1019b00081805a0002015b0083815b004f06780042
:0c19c0004f05be004f04be0000000600f2
:020000040000fa
:1019cc002534000064000000486500006c6c0000c9
:1019dc006f200000576f0000726c00006420000044
:1019ec003a29000000410000483d0000534400002b
:1019fc0047260000465600003d34000031340000fc
:101a0c0033340000265300004f3d0000564f0000b9
:101a1c0044410000264900004d3d000030300000dc
:101a2c00303000003030000030300000303000002a
:101a3c003030000030300000302600004c540000e4
:101a4c003d300000303000003030000030300000fd
:101a5c003030000030300000264c00004f3d0000bc
:101a6c0030300000303000003030000030300000ea
:101a7c003030000030260000444c0000543d000083
:101a8c0031260000444c00004f3d00003026000081
:101a9c00425600003d300000373400003426000070
:101aac00445600003d310000323600003226000062
:101abc0053520000533d00003126000045540000f5
:101acc003d30000035260000445400003d3200003b
:101adc003031000038300000353200003631000063
:101aec003534000034310000392600004542000036
:101afc00414300003d3100002644000047410000f6
:101b0c00433d000030260000535300003d300000e0
:101b1c0026460000463d000030300000303000000a
:101b2c003030000026470000463d00003026000003
:101b3c00465200003d3000003030000030260000de
:101b4c00434200003d3000003030000030300000d7
:101b5c0026430000523d00003030000030300000c1
:101b6c0030260000435900003d30000030300000aa
:101b7c003030000026430000543d0000303000009f
:101b8c00303000003026000050460000413d00007f
:101b9c00303000003030000026500000464200007b
:101bac003d30000030300000302600005046000070
:101bbc00593d00003030000030300000265000004d
:101bcc00465200003d30000030300000302600004e
:101bdc0056410000423d0000303000003030000023
:101bec003030000026560000415200003d3000000d
:101bfc00303000003030000030260000564100002c
:101c0c00593d000030300000303000003030000012
:101c1c0026560000423d00003030000030300000fd
:101c2c003030000026560000523d000030300000dd
:101c3c00303000003030000026560000593d0000c6
:101c4c0030300000303000003030000026570000eb
:101c5c00423d0000303000003030000030300000d9
:101c6c0026570000483d00003030000030300000a6
:101c7c003030000026570000523d0000303000008c
:101c8c00303000003030000026570000543d00007a
:101c9c00303000003030000030300000265700009b
:101cac00593d000030300000303000003030000072
:101cbc0026410000563d0000313400003034000055
:101ccc00265300004d3d0000302600004553000017
:101cdc003d30000030300000303000003026000075
:101cec004f5000003d30000030300000303000001c
:101cfc00302600004f5400003d3000003030000012
:101d0c003030000030260000434f0000543d0000ee
:101d1c00303000003030000030300000264300002e
:101d2c004f4c00003d3000003030000030300000df
:101d3c0030260000464c00003d30000030300000e2
:101d4c003030000030260000414c000041520000b1
:101d5c00543d0000303000000025000030340000fd
:0c1d6c005800000025640000000000008a
:020000040000fa
:101d78000000fa00cbe2a90000502300c1002000b7
:101d8800ac01070001f62000000820000100010056
:101d980000e8230001002000a60107000080fa00e7
:101da800000006000000fa00d682a800d682a9002a
:101db80000322000010020009e0107000080fa0088
:101dc800000006000200fa00004f78001e80fb00a9
:101dd800e100600010c0b3000100e00001003c0019
:101de8000040eb000080fb00610060004400dd0063
:101df800e2168000f1fe2f008100610001007000f2
:101e0800e01688001e80fb00e200600010c0b300ee
:101e18000100e00001003c000040eb000080fb00f6
:101e2800610060004500dd00e2168000f1fd2f0032
:101e38008100610001007000e01688001e80fb0030
:101e4800e400600010c0b3000100e00001003c00a5
:101e58000040eb000080fb00610060004600dd00f0
:101e6800e2168000f1fb2f00810061000100700084
:101e7800e01688001e80fb00e800600010c0b30078
:101e88000100e00001003c000040eb000080fb0086
:101e9800610060004700dd00e2168000f1f72f00c6
:101ea8008100610001007000e0168800bdff070096
:101eb8000080fa00000006000200fa00004f7800d7
:101ec8001e80fb004400de0000407800bdff0700d4
:101ed8000019200001002000560107001e4078006c
:101ee800b8ff070000192000010020005101070079
:101ef8000080fa00000006000000fa00c7e2a9000e
:101f0800d282a900d882a900d8a2a900d8c2a90063
:101f1800d8e2a900d682a900cbe2a900005023008c
:101f2800c10020004301070030c0b300a5ff07002f
:101f380000c42900010020003e01070030c0b300a2
:101f4800a0ff0700006420000100200039010700fd
:101f580030c0b3009bff0700006420000100200090
:101f68003401070020c0b30096ff070000c4290011
:101f7800010020002f01070080c2b300ceff070038
:101f880080c0b300ccff0700c0c0b300caff070081
:101f980060c0b300c8ff070010c0b300c6ff070049
:101fa80000c8b300c4ff070000c4290001002000d6
:101fb800200107000080fa00000006000600fa0071
:101fc800200798002e00900081f90700100798005c
:101fd800cbe2a8000000eb00000f780005003700f6
:101fe8002e0090001e00400010407800b2ff07004d
:101ff8001e0fe8001e0090009e007800808f5000a1
:10200800f7ff3a000080fa00000006000000fa001e
:10201800c7e2a900cbe2a90010c0b300a6ff0700e1
:102028000088230011002000020107000080fa0048
:10203800000006001a00fa00200f9800310f9800df
:10204800420f9800ce089000811f780060ce2800cb
:10205800801f78000e0078006af90700e4875700af
:10206800cbe2a9002e089000e10f500013003200c7
:10207800e10f500003003c000000e00006003200c1
:1020880020003700e20f500012003200e30f50002a
:10209800160032001b0037002e08900080407800a0
:1020a8003e0890000040780080c0400000c8b3009f
:1020b80000c0400080ff0700120037003e08900073
:1020c8008040780000ccb30000c040007aff0700d1
:1020d8000c0037003e0890008040780040c9b300eb
:1020e80000c0400074ff0700060037003e0890005b
:1020f8008040780040cdb30000c040006eff07006c
:10210800000000000e007800acff07000080fa0015
:10211800000006000400fa000080eb000040880080
:102128000000eb00000f78000228ef0007003700de
:10213800210c21001e009000010001001e0fe80084
:10214800104080000000e800104088004080200017
:102158001e004000104078000000fb0010079800a7
:102168001e0090000000e000f1ff3a00601121001d
:10217800000001000080fa00000006000800fa00d4
:102188003007980000082000100798000000eb00b6
:10219800000f78001e003700004080000000e000bb
:1021a80003003d00100020002007980002003700bf
:1021b8000000eb002007980000408000000040006d
:1021c80000408800be0090001e0090000080600063
:1021d8000000e00003003200004080000000e8003a
:1021e800004088002e0090000000e000040032004b
:1021f8000140800010022100008068000040880033
:102208001e0090000000d100100798001e0fe80083
:102218001e007800e70f5000dfff36000080fa004c
:10222800000006000400fa000000eb00000f780030
:1022380013003700004080000000e00003003d006c
:102248001000200010079800020037000000eb0083
:1022580010079800004080000000400000408800ff
:102268001e0090000000e0000400320001408000e1
:102278001002210000806800004088001e0fe8005e
:102288001e007800ef0f5000eaff36000080fa00c9
:10229800000006001400fa00c622ef00c7e2a900f9
:1022a800d282a900d2a2a900d802a900d822a900e6
:1022b800d842a900d862a900d882a900d8a2a9004a
:1022c800d8c2a900d8e2a900d682a900cbe2a90009
:1022d800d6a2a90000502300c10020005500070025
:1022e80005ff070000502300c1002000510007002f
:1022f8009ffe070000882300110020004d00070002
:10230800a0ce28002dff070000502300c1002000a8
:1023180048000700a21b200091cf28004080200021
:10232800a4f807007bff070000502300c10020002d
:102338004000070035ff070000502300c1002000bf
:102348003c000700014080000e007800811f7800e3
:1023580031eb2800811f7800aaf80700e4875700ae
:102368000e00780015ff070000202100a1072000bb
:102378003000070025ff070000502300c10020009f
:102388002c000700114080000e007800811f7800a3
:1023980081eb2800811f78009af80700e48757002e
:0c23a8000e00780005ff0700ffff370063
:020000040000fa
:1023b40004080000e803000000000000000800001a
:1023c40004000000000000000e0c00001a000000d1
:1023d40002000000686a6c00747a4c00000001007e
:1023e40000020000040008000010000000002000ab
:1023f4002b2d230030000000ec0b00002200000015
:1024040002000000303132003334350036373800f2
:102414003941420043444500460030003132330024
:10242400343536003738390061626300646566000c
:082434000000000000000000a0
:020000040000fa
:10243c00f03fb1000180b10006003500ee03090049
:10244c0000000000403fb1000180b100fbff3d00e7
:10245c001000b000203fb0000200350000800900e1
:08246c00000000000000060062
:020000040000fa
:020000040002f8
:04aff800bdfa00009e
:020000040000fa
:020000040002f8
:04affc003f3f0000d3
:00000001FF
